:020000040800F2
:1000000000000120D1110008390E0008410E00083F
:10001000490E0008510E0008590E000800000000AB
:10002000000000000000000000000000610E000859
:100030006D0E000800000000790E0008850E000813
:1000400021120008211200082112000821120008C4
:1000500021120008211200082112000821120008B4
:1000600021120008211200082112000821120008A4
:100070002112000821120008211200082112000894
:100080002112000821120008211200082112000884
:100090002112000821120008211200082112000874
:1000A000211200082112000821120008910E0008F8
:1000B0002112000821120008211200082112000854
:1000C0002112000821120008211200082112000844
:1000D0002112000821120008211200082112000834
:1000E00021120008A50E00082112000821120008A4
:1000F0002112000821120008211200082112000814
:100100002112000821120008B50E00082112000873
:1001100021120008211200082112000821120008F3
:1001200021120008211200082112000821120008E3
:08013000211200082112000851
:1001380010B5054C237833B9044B13B10448AFF319
:1001480000800123237010BD0C0000200000000077
:100158009066000808B5034B1BB103490348AFF389
:10016800008008BD00000000100000209066000814
:10017800034613F8012B002AFBD1181A01387047DF
:1001880053B94AB9002908BF00281CBF4FF0FF31F6
:100198004FF0FF3000F088B9ADF1080C6DE904CEDE
:1001A80000F006F8DDF804E0DDE9022304B070474A
:1001B8002DE9F047089D8E4604468846002B4AD113
:1001C8008A42174662D9B2FA82F64EB1C6F12003C6
:1001D80001FA06F820FA03F3B74043EA0808B440E6
:1001E8004FEA174E1FFA87FCB8FBFEF1230C0EFBF3
:1001F800118843EA084301FB0CF29A4209D9FB181B
:1002080001F1FF3080F0EA809A4240F2E78002393B
:100218003B449A1AA3B2B2FBFEF00EFB102243EA4B
:10022800024300FB0CFC9C4509D9FB1800F1FF3286
:1002380080F0D6809C4540F2D3803B44023840EAA7
:100248000140A3EB0C0300211DB1F3400022C5E9D6
:100258000032BDE8F0878B4205D90DB1C5E9000130
:1002680000210846F5E7B3FA83F1002946D1734522
:1002780002D3824200F20581841A6EEB0302012048
:100288009046002DE5D0C5E90048E2E7002A00F0D5
:100298009080B2FA82F6002E40F0A4808A1A030CED
:1002A8004FEA174E80B2BCB20121B2FBFEFC0EFB36
:1002B8001C2243EA024304FB0CF29A4207D9FB18BA
:1002C8000CF1FF3802D29A4200F2E080C4469B1A31
:1002D800B3FBFEF20EFB123340EA034302FB04F4C5
:1002E8009C4207D9FB1802F1FF3002D29C4200F26F
:1002F800CA8002461B1B42EA0C40A5E7C1F1200652
:100308008B4022FA06F71F430EFA01F420FA06F38F
:100318002EFA06FE4FEA1749234300FA01F81FFA9E
:1003280087FCBEFBF9F01C0C09FB10EE44EA0E44F6
:1003380000FB0CFEA64502FA01F209D93C1900F1AE
:10034800FF3A80F09C80A64540F2998002383C44F0
:10035800A4EB0E041FFA83FEB4FBF9F309FB134464
:100368004EEA044403FB0CFCA44508D93C1903F1EC
:10037800FF3E80F08280A4457FD9023B3C4443EA9B
:100388000040A4EB0C04A0FB02EC64457346E14674
:1003980062D35FD05DB1B8EB030264EB090404FAE1
:1003A80006F622FA01F31E43CC40C5E90064002199
:1003B8004FE7B1FBF2FC010C41EA0E4180B240EA82
:1003C80001423B4638463C46B846BE462026B1FB6D
:1003D800F7F1A2EB080241EA0C4166E7014618E78B
:1003E80010462CE7C6F120022EFA02F3B740B140BE
:1003F80020FA02F24FEA174E0A43B3FBFEF8BCB2EA
:100408000EFB1833110C41EA034108FB04F9B04014
:1004180089454FEA104380B23ED9791808F1FF3C6C
:1004280001D289451FD8A1EB0901B1FBFEF909FBEF
:1004380004F80EFB191192B242EA0142424529D250
:10044800BA1809F1FF31C4D24245C2D2A9F102015A
:100458003A44BEE7F0459DD2BEEB02036CEB070CB5
:100468000138E14696E7A7EB09094944A8F1020CCF
:10047800B1FBFEF909FB04F8DBE773467FE750465A
:1004880066E70846FDE63B44023A33E7ACF1020C66
:100498003B441CE749469CE7A1EB0901C446B1FB74
:1004A800FEF909FB04F8C4E7704700BF80B588B0BF
:1004B80000AF00233B7100237B710023BB71002335
:1004C800FB7100233B7000237B700023BB7000236B
:1004D800FB7000233B7700237B770023BB77002347
:1004E800FB7700233B7608237B760023BB7600232B
:1004F800FB7600233B7500237B750023BB75002327
:10050800FB7500233B7400237B740023BB7400231A
:10051800FB7400233B7300237B730023BB7300230E
:10052800FB7300233B7208237B720023BB720023FA
:10053800FB7200F037F9034683F00103DBB2002BAE
:1005480001D000235EE000F04DF9034683F001037B
:10055800DBB2002B01D0002354E03B1D1A462321B7
:10056800202000F0BFF93B461A462721242000F03E
:10057800B9F907F11C031A460321002000F0B2F96B
:1005880007F118031A460721042000F0ABF907F118
:1005980014031A460B21082000F0A4F907F11003F0
:1005A8001A461321102000F09DF907F10C031A4692
:1005B8001721142000F096F907F108031A461B21A9
:1005C800182000F08FF90421602000F068F901215B
:1005D800702000F064F900212A2000F060F9E5217C
:1005E800292000F05CF98321282000F058F900F058
:1005F80017F9034683F00103DBB2002B01D0002377
:1006080000E0012318462037BD4680BD80B584B080
:1006180000AF78600023FB73364B00221A70354B0D
:1006280000225A70334B00229A70324B0022DA7043
:1006380000F0C4F903461A462F4B1A702E4B1B784C
:1006480003F00403DBB2002B15D17B6858687B6884
:100658001B78284A194600F051F87B681A7A7B689B
:1006680009332449402000F066F9812000F08DF913
:100678000123FB7338E0204B1B7803F01003DBB237
:10068800002B15D17B6858687B681B78194A194676
:1006980000F034F87B681A7A7B68093315494220E0
:1006A80000F049F9822000F070F90123FB731BE088
:1006B800114B1B7803F04003DBB2002B14D17B688D
:1006C80058687B681B780B4A194600F017F87B6856
:1006D8001A7A7B6809330749442000F02CF98420F2
:1006E80000F053F90123FB73FB7B18461037BD4616
:1006F80080BD00BF2C0000202800002080B487B0F7
:1007080000AFF8600B467A60FB720023FB75FB7A3A
:10071800022B2ED1FB68DAB27B68DA70FB681B0A01
:10072800FB60FB68DAB27B689A70FB681B0AFB60A7
:10073800FB68DBB203F00303FB75FB68DB00FB60BF
:10074800FB68DBB223F01F03DAB2FB7D1344FB75B1
:10075800FB7D0833FB75FB7D23F01403DAB27B685D
:100768005A70FB681B0AFB60FB68DAB27B681A7078
:1007780013E07B6800229A707B680022DA70FB68BD
:100788005B01FB60FB68DAB27B685A70FB681B0A86
:10079800FB60FB68DAB27B681A7000BF1C37BD4685
:1007A80080BC704780B582B000AF012210214FF0A5
:1007B800904001F0A9FB0A23FB71094803F09BFE56
:1007C8000346012B01D1012306E0FB79013BFB71B4
:1007D800FB79002BF1D1002318460837BD4680BDB0
:1007E8004800002080B582B000AF80210F2000F0C3
:1007F80056F80A23FB710E2000F030F8034603F088
:10080800E003802B01D1012306E0FB79013BFB715A
:10081800FB79002BEFD1002318460837BD4680BD71
:1008280080B582B000AF00210F2000F038F80A230D
:10083800FB710E2000F012F8034603F0E003002BD2
:1008480001D1012306E0FB79013BFB71FB79002B09
:10085800EFD1002318460837BD4680BD80B584B067
:1008680000AF0346FB71002210214FF0904001F0C9
:100878004BFB032000F0BEF8FB79184600F0BAF8ED
:1008880000F0DEF80346FB73012210214FF0904080
:1008980001F03AFBFB7B18461037BD4680BD80B59A
:1008A80082B000AF03460A46FB711346BB710022B3
:1008B80010214FF0904001F027FB022000F09AF839
:1008C800FB79184600F096F8BB79184600F092F8C4
:1008D800012210214FF0904001F016FB00BF0837AD
:1008E800BD4680BD80B582B000AF03463A60FB715B
:1008F8000B46BB71002210214FF0904001F004FB21
:10090800022000F077F8FB79184600F073F8BA79FE
:10091800FB79D31ADBB20133DBB21946386800F031
:100928007BF8012210214FF0904001F0EDFA00BF52
:100938000837BD4680BD80B584B000AFB9607B6024
:100948000346FB731346BB73002210214FF09040FF
:1009580001F0DAFAFB7B184600F04CF80421B8687D
:1009680000F05AF8BB7B184600F044F8BB7B1946E8
:10097800786800F051F8012210214FF0904001F002
:10098800C3FA00BF1037BD4680BD80B582B000AF46
:100998000346FB71002210214FF0904001F0B4FA99
:1009A800FB79184600F026F8012210214FF09040FC
:1009B80001F0AAFA00BF0837BD4680BD80B582B0F5
:1009C80000AF002210214FF0904001F09DFAA020C6
:1009D80000F010F800F034F80346FB7101221021F2
:1009E8004FF0904001F090FAFB7918460837BD4661
:1009F80080BD000080B582B000AF0346FB71F91DD1
:100A08000A230122034802F0B1FE00BF0837BD46A1
:100A180080BD00BF4800002080B582B000AF78607C
:100A28000B46FB70FB789AB20A237968034802F0F8
:100A38009DFE00BF0837BD4680BD00BF48000020AE
:100A480080B582B000AFF91D0A230122034803F0E4
:100A580024F8FB7918460837BD4680BD48000020B9
:100A680080B485B000AF78604FF0B043DA6C4FF0D7
:100A7800B0417B681343CB644FF0B043DA6C7B68BA
:100A88001340FB60FB6800BF1437BD4680BC70474D
:100A980080B586B000AF3B1D00221A605A609A608C
:100AA800DA601A610220FFF7DBFF0420FFF7D8FFA6
:100AB8000120FFF7D5FF00224FF48041284801F0BC
:100AC80023FA00224FF40051264801F01DFA0122B2
:100AD80010214FF0904001F017FA4FF400437B606B
:100AE8004FF48813BB600023FB603B1D19461C486C
:100AF80001F0AAF84FF480437B600123BB60002318
:100B0800FB6000233B613B1D1946154801F09CF82A
:100B18004FF400537B600123BB600023FB6000237C
:100B28003B613B1D19460F4801F08EF810237B608E
:100B38000123BB600023FB6000233B613B1D19467A
:100B48004FF0904001F080F800220021292001F0A8
:100B580046F8292001F05DF800BF1837BD4680BD72
:100B6800000400480008004880B483B000AF7860F3
:100B78004FF0B043D3F8903023F018024FF0B04153
:100B88007B681343C1F8903000BF0C37BD4680BC6A
:100B98007047000080B500AF00F0B0FE1E4804F0BA
:100BA8003DFB00F03FF8FFF773FF00F0A1F900F0FC
:100BB80079FA00F0C9F800F0DFF9FFF777FC03468F
:100BC80083F00103DBB2002B02D0144B01221A7010
:100BD800134B01221A70124B40F227125A60104B25
:100BE80008221A720E4B53225A720D4B54229A72D3
:100BF8000B4B4D22DA720A4B33221A73084B3222FE
:100C08005A73074B2D229A730548FFF7FFFC64209F
:100C180000F0EAFE00BFDBE7B80000204400002037
:100C28003000002080B59AB000AF07F120034822B9
:100C38000021184605F0FCFC3B1D00221A605A6092
:100C48009A60DA601A615A619A6101F08DF90020A0
:100C5800FFF78AFF1E4B1B6823F4C0631C4A43F44A
:100C6800806313601A4B1B6803F4C0633B603B68E6
:100C780024233B628123FB6201233B6400237B64C2
:100C88006023BB640023FB6407F12003184601F0CE
:100C98003DFC0346002B01D000F01CF84F237B607D
:100CA8000023BB600023FB6000233B6100237B61C2
:100CB8000023FB613B1D0021184601F0A9FF0346F4
:100CC800002B01D000F006F800BF6837BD4680BD94
:100CD8000004005880B400AF72B600BF014B012277
:100CE8001A70FBE74400002080B485B000AF78603C
:100CF8004FF0B043DA6C4FF0B0417B681343CB64DC
:100D08004FF0B043DA6C7B681340FB60FB6800BFB0
:100D18001437BD4680BC704780B485B000AF78609A
:100D28004FF0B0431A6E4FF0B0417B6813430B6627
:100D38004FF0B0431A6E7B681340FB60FB6800BF3E
:100D48001437BD4680BC704780B500AF1B4B1C4AAA
:100D58001A601A4B4FF482725A60184B00229A603C
:100D6800164B4FF4E062DA60144B00221A61134B01
:100D780000225A61114B4FF400729A610F4B0822FE
:100D8800DA610E4B00221A620C4B00225A620B4B9E
:100D980000229A62094B0722DA62084B00221A6382
:100DA800064B08225A63054802F00CFC0346002B48
:100DB80001D0FFF78FFF00BF80BD00BF48000020B3
:100DC8000030014080B588B000AF786007F10C03AF
:100DD80000221A605A609A60DA601A617B681B68A0
:100DE8000F4A934217D14FF48050FFF795FF012027
:100DF800FFF77AFFE023FB6002233B6100237B615E
:100E08000023BB610523FB6107F10C0319464FF072
:100E1800904000F019FF00BF2037BD4680BD00BFDD
:100E28000030014080B400AF00BFBD4680BC7047B1
:100E380080B400AF00BFFDE780B400AF00BFFDE79E
:100E480080B400AF00BFFDE780B400AF00BFFDE78E
:100E580080B400AF00BFFDE780B400AF00BFBD465F
:100E680080BC704780B400AF00BFBD4680BC7047EF
:100E780080B400AF00BFBD4680BC704780B500AFEE
:100E880000F096FD00BF80BD80B500AF024804F0B9
:100E980011FA00BF80BD00BFB800002080B500AFC8
:100EA8004FF4004001F048F800BF80BD80B500AFA6
:100EB800024803F0ADFF00BF80BD00BFAC000020BA
:100EC80080B485B000AF78604FF0B0435A6E4FF0F1
:100ED800B0417B6813434B664FF0B0435A6E7B6852
:100EE8001340FB60FB6800BF1437BD4680BC7047E9
:100EF80080B500AF064B10221A60054803F05EFD6E
:100F08000346002B01D0FFF7E5FE00BF80BD00BF00
:100F1800AC00002080B582B000AF78600120FFF7F8
:100F2800CFFF00220021322000F059FE322000F0CD
:100F380070FE00BF0837BD4680BD80B400AF00BF5B
:100F4800BD4680BC704780B485B000AF78604FF074
:100F5800B0439A6D4FF0B0417B6813438B654FF0F7
:100F6800B0439A6D7B681340FB60FB6800BF143781
:100F7800BD4680BC7047000080B588B000AF07F15F
:100F8800100300221A605A609A60DA603B1D002242
:100F98001A605A609A601E4B4FF080421A601C4BD0
:100FA80000225A601A4B00229A60194B4FF0FF3208
:100FB800DA60174B00221A61154B00229A61144817
:100FC80004F0D4F80346002B01D0FFF783FE4FF45A
:100FD80080533B6107F1100319460D4804F06CFA81
:100FE8000346002B01D0FFF775FE00237B6000232A
:100FF800FB603B1D1946064804F05AFC0346002BCB
:1010080001D0FFF767FE00BF2037BD4680BD00BF97
:10101800B800002080B582B000AF78607B681B689C
:10102800B3F1804F0AD10120FFF78DFF0022002184
:101038001B2000F0D4FD1B2000F0EBFD00BF08379B
:10104800BD4680BD80B485B000AF78604FF0B04336
:10105800DA6C4FF0B0417B681343CB644FF0B04378
:10106800DA6C7B681340FB60FB6800BF1437BD4631
:1010780080BC704780B485B000AF78604FF0B04353
:101088009A6D4FF0B0417B6813438B654FF0B043C6
:101098009A6D7B681340FB60FB6800BF1437BD4640
:1010A80080BC704780B500AF224B234A1A60214BA1
:1010B8004FF4E1325A601F4B00229A601D4B002208
:1010C800DA601C4B00221A611A4B0C225A61194B28
:1010D80000229A61174B0022DA61164B00221A622D
:1010E800144B00225A62134B00229A62114804F0F2
:1010F80079FC0346002B01D0FFF7ECFD00210D48D9
:1011080005F029F90346002B01D0FFF7E3FD002184
:10111800084805F05EF90346002B01D0FFF7DAFD19
:10112800044805F0E0F80346002B01D0FFF7D2FD94
:1011380000BF80BD040100200044004080B596B087
:1011480000AF786007F1440300221A605A609A6081
:10115800DA601A6107F10C0338220021184605F0FD
:1011680067FA7B681B68174A934226D10223FB6003
:101178004FF440237B6107F10C03184602F008F98D
:101188000346002B01D0FFF7A5FD4FF40030FFF711
:1011980071FF0120FFF756FF0C237B640223BB6419
:1011A8000023FB6400233B6507237B6507F14403A9
:1011B80019464FF0904000F047FD00BF5837BD4634
:1011C80080BD00BF004400400D488546FFF7B5FECE
:1011D8000C480D490D4A002302E0D458C45004338A
:1011E800C4188C42F9D30A4A0A4C002301E0136060
:1011F8000432A242FBD305F023FAFFF7CBFCFEE74B
:1012080000000120000000200C000020C867000832
:101218000C000020BC010020FEE7000080B582B071
:1012280000AF0346FB71FB79032B4BD801A252F8A0
:1012380023F000BF4D1200086D1200088D1200083F
:10124800AD12000800220821214800F05DFE0022AE
:1012580010211F4800F058FE002220211C4800F0F1
:1012680053FE30E001220821194800F04DFE01220A
:101278001021174800F048FE00222021144800F0F1
:1012880043FE20E001220821114800F03DFE012222
:1012980010210F4800F038FE012220210C4800F0F0
:1012A80033FE10E001220821094800F02DFE00223B
:1012B8001021074800F028FE01222021044800F0F0
:1012C80023FE00E000BF002318460837BD4680BD56
:1012D8000008004880B400AF01231846BD4680BC12
:1012E800704780B582B000AF0346FB71FB791846A2
:1012F800FFF794FF034618460837BD4680BD80B502
:1013080000AFFFF7E7FF0346184680BD80B582B0FF
:1013180000AF78600B46FB70FB781A4679680020AE
:1013280000F0BEF900BF0837BD4680BD80B584B067
:1013380000AFF8600B467A60FB72FB7A1946F868D2
:10134800FFF7E4FF786800F045F800BF1037BD46A6
:1013580080BD80B584B000AF0346FB80FB881B0AC4
:101368009BB2DBB23B73FB88DBB27B7300F0A8F85F
:101378000346002B08D107F10C030222194640F25C
:10138800BC6000F06BF900E000BF00BF1037BD463D
:1013980080BD80B584B000AF0346FB80FB881B0A84
:1013A8009BB2DBB23B73FB88DBB27B7300F088F83F
:1013B8000346002B08D107F10C030222194640F21C
:1013C800BE6000F04BF900E000BF00BF1037BD461B
:1013D80080BD000080B584B000AF78600C4B04225B
:1013E8001A707B681B0CDBB23B737B681B0ADBB291
:1013F8007B737B68DBB2BB7307F10C0303221946CE
:10140800832000F06FF900BF1037BD4680BD00BFD4
:101418009801002090B585B000AF044608461146F3
:101428001A462346FB800346BB800B467B80134647
:101438003B80FB881B0A9BB2DBB23B72FB88DBB2AA
:101448007B72BB881B0A9BB2DBB2BB72BB88DBB268
:10145800FB727B881B0A9BB2DBB23B737B88DBB2D7
:101468007B733B881B0A9BB2DBB2BB733B88DBB246
:10147800FB7307F1080308221946082000F032F927
:1014880000BF1437BD4690BD80B582B000AF03469B
:10149800FB71FA79094B1A70FB79002B04D10021F2
:1014A80040F2AC6000F0B2F8FB1D012219468A2018
:1014B80000F018F900BF0837BD4680BD990100202B
:1014C80080B400AF024B1B781846BD4680BC7047FD
:1014D8009901002080B586B000AF78600023BB7505
:1014E80007F10C0300221A605A601A727B681A7896
:1014F800444B1B789A4204D07B681B781846FFF748
:10150800C3FF7B681B78032B78D801A252F823F01D
:1015180029150008B9150008AD1500082915000897
:101528007B685B7AF12B0AD14FF6FF70FFF711FF4A
:1015380048F20500FFF72DFF0223BB7511E07B6819
:101548005B7AF22B0AD141F60F50FFF702FF41F206
:101558002100FFF71EFF0623BB7502E07B685B7A5C
:10156800BB750923FB757B685B881B0A9BB2DBB2E2
:101578003B737B685B88DBB27B737B681B79BB73CF
:101588007B685B79FB737B689B793B747B68DB7951
:101598007B747B681B7ABB74BB7DFB747B689B7A0E
:1015A8003B7522E00123FB757B681B7B3B731CE0CA
:1015B8000623FB757B68DB891B0A9BB2DBB23B7396
:1015C8007B68DB89DBB27B737B681A7C0E4B114628
:1015D80019701346BB737B685B7CFB737B689B7CD1
:1015E8003B747B68DB7C7B7400BFFB7D9AB207F1A0
:1015F8000C0319468C2000F075F800E000BF18377E
:10160800BD4680BD990100209A01002080B582B0B6
:1016180000AF03460A46FB8013467B717A1DF988A2
:101628000123034803F02EFA00BF0837BD4680BDEA
:10163800AC00002080B584B000AF0346FB8007F102
:101648000F02F9880123044803F07BFAFB7B184654
:101658001037BD4680BD00BFAC00002080B586B005
:1016680000AF03463960FB801346BB80EFF310835D
:10167800FB60FB687B6172B600BFBB88F9883A687B
:10168800064803F0FFF97B693B613B6983F31088E7
:1016980000BF00BF1837BD4680BD00BFAC000020AA
:1016A80080B586B000AF03463960FB711346BB7145
:1016B800EFF31083FB60FB687B6172B600BFBB79F8
:1016C8009BB2F9793A68064803F04FFB7B693B61A6
:1016D8003B6983F3108800BF00BF1837BD4680BD43
:1016E800AC00002080B586B000AF03463960FB71BE
:1016F8001346BB80EFF31083FB60FB687B6172B617
:1017080000BFBB88F9793A68064803F07BFA7B6921
:101718003B613B6983F3108800BF00BF1837BD46A3
:1017280080BD00BFAC00002080B584B000AF034688
:101738000A46FB711346BB710123FB73BB79012B6E
:101748000DD1FB79012B04D10223FB73042000F097
:10175800B3F8FB79022B07D10323FB7304E0BB79B1
:10176800002B01D10123FB73FB7B1846FFF7B9FD62
:1017780000BF1037BD4680BD80B582B000AF78602D
:10178800034B1B680120984700BF0837BD4680BD42
:101798009C01002080B582B000AF7860034B1B68C5
:1017A8000220984700BF0837BD4680BD9C01002035
:1017B80080B582B000AF7860034B1B684020984723
:1017C80000BF0837BD4680BD9C01002080B582B0AF
:1017D80000AF78600B46FB70FB78002B02D0012B22
:1017E80005D00AE0074B1B688020984705E0054BA9
:1017F8001B684FF48070984700BF00BF0837BD468C
:1018080080BD00BF9C01002080B582B000AF786029
:10181800044B1B684FF40070984700BF0837BD465B
:1018280080BD00BF9C01002080B582B000AF786009
:10183800034B1B682020984700BF0837BD4680BD72
:101848009C01002080B582B000AF7860034B1B6814
:101858000420984700BF0837BD4680BD9C01002082
:1018680080B582B000AF7860034B1B6808209847AA
:1018780000BF0837BD4680BD9C01002080B582B0FE
:1018880000AF7860034B1B681020984700BF0837EB
:10189800BD4680BD9C01002080B582B000AF786055
:1018A800044B1B684FF48040984700BF0837BD467B
:1018B80080BD00BF9C01002080B584B000AF034606
:1018C800FB71FFF71CFD0346012B12D140F62310D4
:1018D800FFF7B0FE0346FB73FB7B23F00603FB73A5
:1018E800FA7BFB791343DBB2194640F62310FFF766
:1018F8008DFE00BF1037BD4680BD000080B582B0A8
:1019080000AF0023FB71032000F05EF901F062FBD9
:101918000346094A13600F2000F010F80346002B15
:1019280002D00123FB7101E0FFF77CFAFB7918462E
:101938000837BD4680BD00BF0000002080B584B0D8
:1019480000AF78600023FB73174B1B78002B24D063
:1019580001F040FB0246144B1B7819464FF47A738A
:10196800B3FBF1F3B2FBF3F3184600F060F903465A
:10197800002B0FD17B680F2B09D8002279684FF014
:10198800FF3000F02CF9094A7B68136007E0012357
:10199800FB7304E00123FB7301E00123FB73FB7B72
:1019A80018461037BD4680BD0800002004000020FE
:1019B80080B400AF054B1B781A46054B1B681344CF
:1019C800034A136000BFBD4680BC70470800002072
:1019D800A001002080B400AF024B1B681846BD462A
:1019E80080BC7047A001002080B584B000AF78604B
:1019F800FFF7F0FFB8607B68FB60FB68B3F1FF3F5F
:101A080005D00A4B1B781A46FB681344FB6000BFDD
:101A1800FFF7E0FF0246BB68D31AFA689A42F7D884
:101A280000BF00BF1037BD4680BD00BF08000020C2
:101A380080B485B000AF78607B6803F00703FB6073
:101A48000C4BDB68BB60BA684FF6FF031340BB6002
:101A5800FB681A02BB68134343F0BF6343F40033C7
:101A6800BB60044ABB68D36000BF1437BD4680BC66
:101A7800704700BF00ED00E080B400AF044BDB68A6
:101A88001B0A03F007031846BD4680BC704700BF19
:101A980000ED00E080B483B000AF0346FB7197F916
:101AA8000730002B0BDBFB7903F01F02064997F97F
:101AB80007305B09012000FA02F241F8232000BF39
:101AC8000C37BD4680BC704700E100E080B483B0AD
:101AD80000AF03463960FB7197F90730002B0ADB2A
:101AE8003B68DAB20C4997F907301201D2B20B44BD
:101AF80083F800230AE03B68DAB20849FB7903F06F
:101B08000F03043B1201D2B20B441A7600BF0C3704
:101B1800BD4680BC704700BF00E100E000ED00E07A
:101B280080B489B000AFF860B9607A60FB6803F0F0
:101B38000703FB61FB69C3F10703042B28BF0423D8
:101B4800BB61FB690433062B02D9FB69033B00E048
:101B580000237B614FF0FF32BB6902FA03F3DA43DB
:101B6800BB681A407B699A404FF0FF317B6901FAE4
:101B780003F3D9437B680B40134318462437BD460B
:101B880080BC704780B582B000AF78607B68013B4D
:101B9800B3F1807F01D301230FE00A4A7B68013B40
:101BA80053600F214FF0FF30FFF790FF054B0022E5
:101BB8009A60044B07221A60002318460837BD466E
:101BC80080BD00BF10E000E080B582B000AF786053
:101BD8007868FFF72DFF00BF0837BD4680BD80B588
:101BE80086B000AF0346B9607A60FB73FFF744FF25
:101BF80078617A68B9687869FFF792FF024697F9C1
:101C08000F3011461846FFF761FF00BF1837BD4671
:101C180080BD80B582B000AF0346FB7197F90730ED
:101C28001846FFF737FF00BF0837BD4680BD80B5AF
:101C380082B000AF78607868FFF7A4FF03461846C3
:101C48000837BD4680BD000080B487B000AF78601B
:101C5800396000237B6140E13B681A6801217B6998
:101C680001FA03F31340FB60FB68002B00F032819C
:101C78003B685B6803F00303012B05D03B685B6896
:101C880003F00303022B30D17B689B683B617B69BF
:101C98005B00032202FA03F3DB433A6913403B611A
:101CA8003B68DA687B695B0002FA03F33A6913431D
:101CB8003B617B683A699A607B685B683B6101229B
:101CC8007B6902FA03F3DB433A6913403B613B68E3
:101CD8005B681B0903F001027B6902FA03F33A69A6
:101CE80013433B617B683A695A603B685B6803F061
:101CF8000303032B17D07B68DB683B617B695B00C0
:101D0800032202FA03F3DB433A6913403B613B6861
:101D18009A687B695B0002FA03F33A6913433B61F3
:101D28007B683A69DA603B685B6803F00303022B5F
:101D380023D17B69DA087B68083253F822303B618B
:101D48007B6903F007039B000F2202FA03F3DB43CE
:101D58003A6913403B613B681A697B6903F00703E2
:101D68009B0002FA03F33A6913433B617B69DA0883
:101D78007B680832396943F822107B681B683B612D
:101D88007B695B00032202FA03F3DB433A691340E1
:101D98003B613B685B6803F003027B695B0002FA06
:101DA80003F33A6913433B617B683A691A603B68FD
:101DB8005B6803F44033002B00F08C804E4A7B694B
:101DC8009B08023352F823303B617B6903F003031D
:101DD8009B00072202FA03F3DB433A6913403B6195
:101DE8007B68B3F1904F0DD07B68444A934207D08B
:101DF8007B68434A934201D1022304E0072302E0AF
:101E0800012300E000237A6902F003029200934064
:101E18003A6913433B6138497B699B0802333A6945
:101E280041F82320374B1B683B61FB68DB433A6969
:101E380013403B613B685B6803F48013002B03D0BD
:101E48003A69FB6813433B612E4A3B6913602D4B8B
:101E58005B683B61FB68DB433A6913403B613B6865
:101E68005B6803F40013002B03D03A69FB68134343
:101E78003B61244A3B695360224BD3F880303B6175
:101E8800FB68DB433A6913403B613B685B6803F4DA
:101E98008033002B03D03A69FB6813433B61194A2E
:101EA8003B69C2F88030174BD3F884303B61FB683C
:101EB800DB433A6913403B613B685B6803F40033DA
:101EC800002B03D03A69FB6813433B610D4A3B6919
:101ED800C2F884307B6901337B613B681A687B698F
:101EE80022FA03F3002B7FF4B7AE00BF00BF1C3704
:101EF800BD4680BC704700BF000001400004004898
:101F0800000800480008005880B483B000AF78602B
:101F18000B467B8013467B707B78002B03D07A8836
:101F28007B689A6102E07A887B689A6200BF0C3706
:101F3800BD4680BC7047000080B582B000AF034644
:101F4800FB80084BDA68FB881340002B06D0054A53
:101F5800FB88D360FB88184604F01CFB00BF0837D9
:101F6800BD4680BD0008005880B400AF044B1B6814
:101F7800034A43F48073136000BFBD4680BC7047BA
:101F88000004005880B400AF034B1B6803F4C0631F
:101F98001846BD4680BC70470004005880B400AFA6
:101FA800064B1B6803F48073B3F5807F01D10123CE
:101FB80000E000231846BD4680BC70470004005866
:101FC80080B400AF4FF0B0431B684FF0B04243F409
:101FD8000013136000BFBD4680BC704780B400AFDB
:101FE8004FF0B0431B684FF0B04223F40013136066
:101FF80000BFBD4680BC704780B400AF4FF0B0430F
:102008001B6803F48013B3F5801F01D1012300E09E
:1020180000231846BD4680BC704780B400AF4FF01F
:10202800B0431B684FF0B04243F48033136000BFE5
:10203800BD4680BC704780B400AF4FF0B0431B680A
:102048004FF0B04223F48033136000BFBD4680BC1C
:10205800704780B400AF4FF0B0431B6803F40033FF
:10206800B3F5003F01D1012300E000231846BD4627
:1020780080BC704780B400AF4FF0B0431B684FF08E
:10208800B04243F48073136000BFBD4680BC704704
:1020980080B400AF4FF0B0431B684FF0B04223F458
:1020A8008073136000BFBD4680BC704780B400AF2A
:1020B8004FF0B0431B6803F48063B3F5806F01D120
:1020C800012300E000231846BD4680BC704780B459
:1020D80083B000AF78604FF0B0435B6823F0FE42F6
:1020E8007B681B064FF0B04113434B6000BF0C37B1
:1020F800BD4680BC704780B400AF4FF0B043D3F802
:10210800903003F00203022B01D1012300E00023E9
:102118001846BD4680BC704780B400AF4FF0B0434E
:10212800D3F894304FF0B04243F00103C2F8943032
:1021380000BFBD4680BC704780B400AF4FF0B043CD
:10214800D3F894304FF0B04223F00103C2F8943032
:1021580000BFBD4680BC704780B400AF4FF0B043AD
:10216800D3F8943003F00203022B01D1012300E0DD
:1021780000231846BD4680BC704780B400AF4FF0BE
:10218800B0431B684FF0B04243F00103136000BF37
:10219800BD4680BC704780B400AF4FF0B0431B68A9
:1021A8004FF0B04223F00103136000BFBD4680BC6E
:1021B800704780B400AF4FF0B0431B6803F00203D0
:1021C800022B01D1012300E000231846BD4680BC44
:1021D800704780B400AF4FF0B0431B6803F00803AA
:1021E800082B01D1012300E000231846BD4680BC1E
:1021F800704780B400AF4FF0B0431B6803F0F003A2
:102208001846BD4680BC704780B400AF4FF0B0435D
:10221800D3F8943003F470631846BD4680BC704709
:1022280080B483B000AF78604FF0B0435B6823F4AC
:102238007F427B681B024FF0B04113434B6000BFE5
:102248000C37BD4680BC704780B483B000AF78605F
:102258004FF0B0439B6823F003024FF0B0417B6816
:1022680013438B6000BF0C37BD4680BC704780B4F9
:1022780000AF4FF0B0439B6803F00C031846BD460F
:1022880080BC704780B483B000AF78604FF0B04333
:102298009B6823F0F0024FF0B0417B6813438B60DA
:1022A80000BF0C37BD4680BC704780B483B000AF18
:1022B80078604FF0B043D3F8083123F0F0024FF0C4
:1022C800B0417B681343C1F8083100BF0C37BD46E5
:1022D80080BC704780B483B000AF78604FF0B043E3
:1022E800D3F8083123F00F027B681B094FF0B04187
:1022F8001343C1F8083100BF0C37BD4680BC704796
:1023080080B483B000AF78604FF0B0439B6823F48B
:10231800E0624FF0B0417B6813438B6000BF0C371D
:10232800BD4680BC704780B483B000AF78604FF082
:10233800B0439B6823F460524FF0B0417B6813436D
:102348008B6000BF0C37BD4680BC704780B400AFBF
:102358004FF0B0439B6803F0F0031846BD4680BCBD
:10236800704780B400AF4FF0B043D3F808311B0179
:1023780003F0F0031846BD4680BC704780B400AF38
:102388004FF0B0439B6803F4E0631846BD4680BC39
:10239800704780B400AF4FF0B0439B6803F46053BC
:1023A8001846BD4680BC704780B400AF4FF0B043BC
:1023B8001B684FF0B04243F08073136000BFBD4606
:1023C80080BC704780B400AF4FF0B0431B684FF03B
:1023D800B04223F08073136000BFBD4680BC7047D5
:1023E80080B400AF4FF0B0431B6803F00073B3F143
:1023F800007F01D1012300E000231846BD4680BCC0
:10240800704780B400AF4FF0B043DB681B0A03F09D
:102418007F031846BD4680BC704780B400AF4FF0BC
:10242800B043DB6803F060431846BD4680BC704784
:1024380080B400AF4FF0B043DB6803F07003184678
:10244800BD4680BC704780B400AF4FF0B043DB6836
:1024580003F003031846BD4680BC704780B400AF44
:102468004FF0B0439B6803F48033B3F5803F01D14C
:10247800012300E000231846BD4680BC704780B4A5
:1024880000AF4FF0B043D3F8083103F40033B3F58D
:10249800003F01D1012300E000231846BD4680BC5F
:1024A800704780B400AF4FF0B043D3F8083103F45D
:1024B8008033B3F5803F01D1012300E000231846A3
:1024C800BD4680BC704780B400AF4FF0B0439B68F6
:1024D80003F40033B3F5003F01D1012300E00023EA
:1024E8001846BD4680BC704780B400AF4FF0B0437B
:1024F8009B6803F48023B3F5802F01D1012300E00A
:1025080000231846BD4680BC7047000080B588B0DF
:1025180000AF78607B68002B01D101236FE3FFF7E0
:10252800A6FEF861FFF78FFFB8617B681B6803F0B0
:102538002003002B00F0C480FB69002B05D0FB6949
:102548000C2B76D1BB69012B73D17B681B6A002BDE
:1025580001D1012353E37B689A6A4FF0B0431B68AB
:1025680003F00803002B05D04FF0B0431B6803F0BD
:10257800F00306E04FF0B043D3F894301B0903F0A2
:10258800F003934222D27B689B6A184600F05AFDFA
:102598000346002B01D0012331E34FF0B0431B6801
:1025A8004FF0B04243F0080313604FF0B0431B688C
:1025B80023F0F0027B689B6A4FF0B04113430B6035
:1025C8007B685B6A1846FFF72BFE21E04FF0B043AB
:1025D8001B684FF0B04243F0080313604FF0B0435C
:1025E8001B6823F0F0027B689B6A4FF0B0411343ED
:1025F8000B607B685B6A1846FFF712FE7B689B6A74
:10260800184600F01FFD0346002B01D00123F6E217
:1026180000F0E0FC0346A74A1360A74B1B68184666
:10262800FFF78CF90346FB74FB7C002B47D0FB7C3F
:10263800E5E27B681B6A002B2CD0FFF79EFDFFF7B5
:10264800C9F9786108E0FFF7C5F902467B69D31A32
:10265800022B01D90323D2E2FFF7ABFD0346002B7F
:10266800F1D04FF0B0431B684FF0B04243F008037D
:1026780013604FF0B0431B6823F0F0027B689B6A3D
:102688004FF0B04113430B607B685B6A1846FFF755
:10269800C7FD15E0FFF77FFDFFF79CF9786108E0BB
:1026A800FFF798F902467B69D31A022B01D9032355
:1026B800A5E2FFF77EFD0346002BF1D100E000BF45
:1026C8007B681B6803F00103002B58D0FB69082BBB
:1026D80005D0FB690C2B08D1BB69032B05D17B689E
:1026E8005B68002B4BD1012389E24FF0B0431B6894
:1026F80023F480127B689B684FF0B04113430B6052
:102708007B685B68B3F5803F02D1FFF786FC0DE07C
:102718007B685B68B3F5041F04D1FFF751FCFFF732
:102728007CFC03E0FFF787FCFFF758FC7B685B68DD
:10273800002B12D0FFF74EF9786108E0FFF74AF94D
:1027480002467B69D31A642B01D9032357E2FFF7AA
:1027580080FC0346002BF1D011E0FFF73BF97861CC
:1027680008E0FFF737F902467B69D31A642B01D9D1
:10277800032344E2FFF76DFC0346002BF1D17B688D
:102788001B6803F00203002B46D0FB69042B05D01D
:10279800FB690C2B0ED1BB69022B0BD17B681B6923
:1027A800002B01D101232AE27B685B691846FFF7F9
:1027B8008EFC31E07B681B69002B19D0FFF75AFCAF
:1027C800FFF708F9786108E0FFF704F902467B692A
:1027D800D31A022B01D9032311E2FFF767FC034642
:1027E800002BF1D07B685B691846FFF770FC13E09B
:1027F800FFF74EFCFFF7EEF8786108E0FFF7EAF81C
:1028080002467B69D31A022B01D90323F7E1FFF7AC
:102818004DFC0346002BF1D17B681B6803F00803CD
:10282800002B6ED07B689B69002B56D04FF0B043CD
:10283800D3F89430FB607B68DA69FB6803F0100317
:102848009A4231D0FB6803F00203002B06D0FB68E4
:1028580003F00103002B01D10123D0E1FB6803F051
:102868000103002B13D0FFF767FCFFF7B3F878617B
:1028780008E0FFF7AFF802467B69D31A112B01D99C
:102888000323BCE1FFF768FC0346002BF1D14FF0AE
:10289800B043D3F8943023F010027B68DB694FF023
:1028A800B0411343C1F89430FFF736FCFFF792F8B4
:1028B80078610CE00000002004000020FFF78AF88F
:1028C80002467B69D31A112B01D9032397E1FFF73D
:1028D80043FC0346002BF1D013E0FFF72DFCFFF774
:1028E80079F8786108E0FFF775F802467B69D31A32
:1028F800112B01D9032382E1FFF72EFC0346002B9D
:10290800F1D17B681B6803F00403002B00F0D8802A
:10291800FFF744FB0346002B13D1FFF725FBFFF716
:1029280059F8786108E0FFF755F802467B69D31A31
:10293800022B01D9032362E1FFF730FB0346002B8A
:10294800F1D07B68DB68002B7BD07B68DB68852B4C
:1029580003D07B68DB68052B09D14FF0B043D3F86F
:1029680090304FF0B04243F00403C2F89030FFF7C4
:1029780031F878614FF0B043D3F890304FF0B0425F
:1029880043F00103C2F890300AE0FFF723F802464B
:102998007B69D31A41F28832934201D903232EE18D
:1029A800FFF7A9FB0346002BEFD07B68DB68812B80
:1029B80003D07B68DB68852B21D1FFF70BF87861A2
:1029C8004FF0B043D3F890304FF0B04243F080035B
:1029D800C2F890300AE0FEF7FDFF02467B69D31A81
:1029E80041F28832934201D9032308E14FF0B04302
:1029F800D3F8903003F40063002BECD060E0FEF7CE
:102A0800E9FF78614FF0B043D3F890304FF0B0420F
:102A180023F08003C2F890300AE0FEF7DBFF02469D
:102A28007B69D31A41F28832934201D90323E6E045
:102A38004FF0B043D3F8903003F40063002BECD18F
:102A48003EE0FEF7C7FF78614FF0B043D3F890300F
:102A58004FF0B04223F08003C2F890300AE0FEF74E
:102A6800B9FF02467B69D31A41F28832934201D9F1
:102A78000323C4E04FF0B043D3F8903003F400636D
:102A8800002BECD1FEF7A6FF78614FF0B043D3F8E6
:102A980090304FF0B04223F00103C2F890300AE0C2
:102AA800FEF798FF02467B69D31A41F288329342B7
:102AB80001D90323A3E0FFF71EFB0346002BEFD148
:102AC8007B68DB6A002B00F09980FB690C2B6CD0CB
:102AD8007B68DB6A022B4BD1FFF774FCFEF77AFFA9
:102AE800786108E0FEF776FF02467B69D31A0A2B65
:102AF80001D9032383E0FFF773FC0346002BF1D1D0
:102B08004FF0B043DA68404B13407A68116B7A682B
:102B1800526B11437A68926B120211437A68D26B36
:102B280011437A68126C11437A68526C0A434FF069
:102B3800B0411343CB60FFF737FC4FF0B043DB687D
:102B48004FF0B04243F08053D360FEF743FF786103
:102B580008E0FEF73FFF02467B69D31A0A2B01D92A
:102B680003234CE0FFF73CFC0346002BF1D045E083
:102B7800FFF728FCFEF72EFF786108E0FEF72AFF32
:102B880002467B69D31A0A2B01D9032337E0FFF7E2
:102B980027FC0346002BF1D14FF0B043DA684FF021
:102BA800B0411A4B1340CB6028E07B68DB6A012BED
:102BB80001D1012323E04FF0B043DB68BB61BB695F
:102BC80003F003027B681B6B9A4215D1BB6903F0C3
:102BD80070027B685B6B9A420ED1BB6903F4FE42BC
:102BE8007B689B6B1B029A4206D1BB6903F060426B
:102BF8007B685B6C9A4201D0012300E000231846F1
:102C08002037BD4680BD00BF8C80C111FCFFFEEEA1
:102C180080B584B000AF786039607B68002B01D143
:102C280001232CE1984B1B6803F007033A689A428A
:102C38001BD9954B1B6823F0070293493B68134344
:102C48000B60FEF7C7FEF86008E0FEF7C3FE024619
:102C5800FB68D31A022B01D9032310E18A4B1B68A6
:102C680003F007033A689A42EFD17B681B6803F0C8
:102C78000203002B16D07B689B681846FFF702FBFF
:102C8800FEF7A8FEF86008E0FEF7A4FE0246FB681F
:102C9800D31A022B01D90323F1E0FFF7DFFB034628
:102CA800002BF1D07B681B6803F02003002B16D0A3
:102CB8007B685B691846FFF7F8FAFEF78BFEF86049
:102CC80008E0FEF787FE0246FB68D31A022B01D9FB
:102CD8000323D4E0FFF7D3FB0346002BF1D07B6836
:102CE8001B6803F04003002B16D07B689B691846CD
:102CF800FFF7F0FAFEF76EFEF86008E0FEF76AFEEE
:102D08000246FB68D31A022B01D90323B7E0FFF769
:102D1800C8FB0346002BF1D07B681B6803F0040353
:102D2800002B16D07B68DB681846FFF7E9FAFEF738
:102D380051FEF86008E0FEF74DFE0246FB68D31A24
:102D4800022B01D903239AE0FFF7BDFB0346002BB2
:102D5800F1D07B681B6803F00803002B17D07B6851
:102D68001B69DB001846FFF7DEFAFEF733FEF86052
:102D780008E0FEF72FFE0246FB68D31A022B01D9A2
:102D880003237CE0FFF7B0FB0346002BF1D07B6800
:102D98001B6803F00103002B43D07B685B68022BA0
:102DA80006D1FFF756F90346002B1ED1012366E032
:102DB8007B685B68032B06D1FFF712FB0346002BE9
:102DC80013D101235BE07B685B68002B06D1FFF71A
:102DD800F0F90346002B08D1012350E0FFF766F90C
:102DE8000346002B01D1012349E07B685B68184644
:102DF800FFF72AFAFEF7EEFDF8600AE0FEF7EAFDB3
:102E08000246FB68D31A41F28832934201D9032360
:102E180035E0FFF72CFA02467B685B689B009A4214
:102E2800ECD1194B1B6803F007033A689A421BD28E
:102E3800154B1B6823F0070213493B6813430B60CB
:102E4800FEF7C8FDF86008E0FEF7C4FD0246FB681F
:102E5800D31A022B01D9032311E00B4B1B6803F093
:102E680007033A689A42EFD100F0B4F80346074ADC
:102E78001360074B1B681846FEF760FD03461846AB
:102E88001037BD4680BD00BF00400058000000203C
:102E98000400002090B587B000AF00237B610023B9
:102EA8003B61FFF7E4F9B860FFF7CDFA7860BB68DB
:102EB800002B05D0BB680C2B39D17B68012B36D190
:102EC800FFF787F90346002B15D1FFF782F9034670
:102ED800012B06D1FFF78DF903461B0A03F00F03F8
:102EE80005E0FFF791F903461B0A03F00F03364A82
:102EF80052F8233014E0FFF76CF90346012B06D192
:102F0800FFF777F903461B0903F00F0305E0FFF706
:102F18007BF903461B0903F00F032B4A52F82330B1
:102F28003B61BB68002B15D13B697B6112E0BB6834
:102F3800042B02D1254B7B610CE0BB68082B09D11F
:102F4800FFF75AF80346012B02D1204B7B6101E0C1
:102F58001F4B7B61FFF78BF903460C2B2FD1FFF733
:102F680072FA78607B68022B03D07B68032B03D04E
:102F78000DE0164BFB600DE0FFF73EF80346012B12
:102F880002D1124BFB6005E0114BFB6002E03B698C
:102F9800FB6000BFFFF735FA0246FB6803FB02F44B
:102FA800FFF746FA03461B090133B4FBF3F4FFF7B6
:102FB80034FA03465B0F0133B4FBF3F37B617B699F
:102FC80018461C37BD4690BD506700080024F40021
:102FD8000048E80198B500AFFFF75CFF0446FFF72B
:102FE800B5F903461B0903F00F03034A52F82330CF
:102FF800B4FBF3F3184698BDF066000898B500AF27
:10300800FFF7E8FF0446FFF7B9F903461B0A034A2E
:1030180052F8233024FA03F3184698BD30670008A5
:1030280098B500AFFFF7D6FF0446FFF7B2F903469D
:10303800DB0A034A52F8233024FA03F3184698BDF2
:103048003067000890B585B000AF78607B681B09D1
:1030580003F00F03104A52F82330FB60FFF781F9A1
:1030680003461B0903F00F030C4A52F82330FA6891
:10307800B2FBF3F3BB60BB68094AA2FB03239C0CB9
:10308800FEF780FF03461946204600F00BF803467A
:1030980018461437BD4690BD50670008F066000812
:1030A80083DE1B4380B58EB000AF786039603A4A42
:1030B80007F1200392E80300186004331980374AA7
:1030C80007F1180392E80300186004331980344AA2
:1030D80007F10C0307CA83E8070000237B633B68FA
:1030E800B3F5007F1BD100233B6314E03B6B5B000F
:1030F80038333B4433F8183C1A467B68934207D868
:103108003B6B9B0038333B4453F82C3C7B6321E0FA
:103118003B6B01333B633B6B022BE7D91AE000237F
:10312800FB6214E0FB6A5B0038333B4433F8203C15
:103138001A467B68934207D8FB6A9B0038333B44A6
:1031480053F82C3C7B6305E0FB6A0133FB62FB6AA6
:10315800022BE7D9134B1B6823F0070211497B6B3D
:1031680013430B60FEF736FCB86208E0FEF732FC4A
:103178000246BB6AD31A022B01D9032307E0094B85
:103188001B6803F007037A6B9A42EFD100231846B5
:103198003837BD4680BD00BFA8660008B066000885
:1031A800B86600080040005880B400AF4FF0B04344
:1031B800D3F8903003F00203022B01D1012300E081
:1031C80000231846BD4680BC704780B483B000AF6A
:1031D80078604FF0B043D3F888207B681B0CDB4342
:1031E8001A407B689BB24FF0B0411343C1F8883056
:1031F80000BF0C37BD4680BC704780B483B000AFB9
:1032080078604FF0B043D3F8883023F440724FF021
:10321800B0417B681343C1F8883000BF0C37BD4606
:1032280080BC704780B483B000AF78604FF0B04383
:10323800D3F8883023F440624FF0B0417B681343E1
:10324800C1F8883000BF0C37BD4680BC704780B4D9
:1032580083B000AF78604FF0B043D3F888207B6824
:103268001B0903F47F23DB431A407B681B0103F42B
:103278007F234FF0B0411343C1F8883000BF0C37AB
:10328800BD4680BC704780B483B000AF78604FF013
:10329800B043D3F888207B681B0C1B04DB431A401F
:1032A8007B681B044FF0B0411343C1F8883000BF5E
:1032B8000C37BD4680BC704780B483B000AF7860DF
:1032C8004FF0B043D3F8883023F040424FF0B0417C
:1032D8007B681343C1F8883000BF0C37BD4680BCFB
:1032E800704780B483B000AF78604FF0B043D3F834
:1032F800883023F040524FF0B0417B681343C1F847
:10330800883000BF0C37BD4680BC704780B483B09E
:1033180000AF78604FF0B043D3F8903023F4407298
:103328004FF0B0417B681343C1F8903000BF0C37B1
:10333800BD4680BC704780B400AF4FF0B043D3F8AF
:10334800903003F440731846BD4680BC704780B483
:1033580000AF4FF0B043D3F890304FF0B04243F491
:103368008033C2F8903000BFBD4680BC704780B43F
:1033780000AF4FF0B043D3F890304FF0B04223F491
:103388008033C2F8903000BFBD4680BC7047000053
:1033980080B586B000AF786000237B610023FB74A2
:1033A8000023BB747B681B6803F48033002B58D060
:1033B800FEF7DAFDFEF70EFBF86009E0FEF70AFB00
:1033C8000246FB68D31A022B02D90323FB7406E0DA
:1033D8007B4B1B6803F48073B3F5807FEED1FB7CD5
:1033E800002B3CD1FFF7A7FF02467B685B6B9A4234
:1033F8000FD04FF0B043D3F8903023F440737B6183
:10340800FFF7A5FFFFF7B3FF4FF0B0427B69C2F8A3
:1034180090307B6903F00203002B14D0FEF7DAFA30
:10342800F8600BE0FEF7D6FA0246FB68D31A41F2C1
:103438008832934202D90323FB7404E0FFF7B4FEF9
:103448000346012BEED1FB7C002B05D17B685B6B1F
:103458001846FFF75BFF04E0FB7CBB7401E0FB7CD4
:10346800BB747B681B6803F00103002B04D07B68E6
:103478005B681846FFF7A9FE7B681B6803F0020328
:10348800002B04D07B689B681846FFF79EFE7B687C
:103498001B6803F02003002B04D07B681B691846C7
:1034A800FFF7C0FE7B681B6803F40073002B04D091
:1034B8007B681B6A1846FFF7E6FE7B681B6803F407
:1034C8008063002B04D07B685B6A1846FFF7DBFE3D
:1034D8007B681B6803F40063002B04D07B689B6A3D
:1034E8001846FFF7D0FE7B681B6803F04003002BEB
:1034F80004D07B685B691846FFF7A9FE7B681B68E8
:1035080003F08003002B04D07B689B691846FFF703
:103518009EFE7B681B6803F48073002B04D07B68D5
:10352800DB691846FFF793FE7B681B6803F01003FE
:10353800002B11D07B68DB681846FFF75EFE7B68BE
:10354800DB68B3F5807F07D14FF0B043DB684FF0FD
:10355800B04243F08073D3607B681B6803F4004378
:10356800002B10D07B681B6B1846FFF7A5FE7B6805
:103578001B6B002B07D14FF0B043DB684FF0B04214
:1035880043F08073D3607B681B6803F48043002B8F
:1035980011D07B68DB6A1846FFF7A3FE7B68DB6AFD
:1035A800B3F1005F07D14FF0B043DB684FF0B04292
:1035B80043F48033D360BB7C18461837BD4680BDC2
:1035C8000004005880B584B000AF78607B68002B99
:1035D80001D10123C6E07B685B6A002B08D17B68B8
:1035E8005B68B3F5827F09D07B680022DA6105E069
:1035F8007B6800221A617B6800225A617B6893F815
:103608005D30DBB2002B06D17B68002283F85C209A
:103618007868FDF7D7FB7B68022283F85D207B681A
:103628001B681A687B681B6822F040021A607B6876
:10363800DB68B3F5E06F02D90023FB6002E04FF4CA
:103648008053FB607B68DB68B3F5706F07D07B68DD
:10365800DB68B3F5E06F02D07B6800229A627B6872
:103668005B6803F482727B689B6803F404431A4323
:103678007B681B6903F002031A437B685B6903F0EC
:1036880001031A437B689B6903F400731A437B6840
:10369800DB6903F038031A437B681B6A03F0800375
:1036A80042EA03017B689B6A03F400527B681B684B
:1036B8000A431A607B689B6AB3F5005F1BD17B687D
:1036C8001B6B002B0BD17B68DB68B3F5E06F03D96C
:1036D8007B6802221A6302E07B6801221A637B6816
:1036E8001B6B022B07D17B681B681A687B681B68F9
:1036F80042F400621A607B689B691B0C03F00402A9
:103708007B685B6A03F010031A437B685B6B03F00A
:1037180008031A437B68DB6803F4706342EA030119
:10372800FB6803F480527B681B680A435A607B6815
:103738009B6AB3F5005F05D17B68DA6A7B681B6812
:1037480092B21A617B681B68DA697B681B6822F48D
:103758000062DA617B6800221A667B68012283F8BE
:103768005D20002318461037BD4680BD80B588B05F
:1037780000AFF860B9603B601346FB800023FB771D
:10378800FB6893F85C30012B01D1022381E1FB68CF
:10379800012283F85C20FEF71DF9B861FB88FB82E3
:1037A800FB6893F85D30DBB2012B02D00223FB7774
:1037B8006AE1BB68002B02D0FB88002B02D10123F1
:1037C800FB7761E1FB68032283F85D20FB68002238
:1037D8001A66FB68BA689A63FB68FA889A87FB6876
:1037E800FA88DA87FB6800221A64FB680022A3F8CB
:1037F8004420FB680022A3F84620FB6800221A65D3
:10380800FB680022DA64FB689B68B3F5004F0FD1B0
:10381800FB681B681A68FB681B6822F040021A6084
:10382800FB681B681A68FB681B6842F480421A60D0
:10383800FB689B6AB3F5005F0FD1FB681B681A68C9
:10384800FB681B6822F400521A60FB681B681A6840
:10385800FB681B6842F400521A60FB681B681B680F
:1038680003F04003402B07D0FB681B681A68FB680D
:103878001B6842F040021A60FB68DB68B3F5E06F32
:103888004FD9FB685B68002B02D0FB8A012B42D121
:10389800FB689B6B1A88FB681B68DA60FB689B6B8C
:1038A8009A1CFB689A63FB68DB8F9BB2013B9AB258
:1038B800FB68DA872FE0FB681B689B6803F002034C
:1038C800022B12D1FB689B6B1A88FB681B68DA60B5
:1038D800FB689B6B9A1CFB689A63FB68DB8F9BB247
:1038E800013B9AB2FB68DA8715E0FEF773F80246E7
:1038F800BB69D31A3A689A4203D83B68B3F1FF3FD1
:1039080002D13B68002B06D10323FB77FB68012219
:1039180083F85D20B8E0FB68DB8F9BB2002BCAD12F
:1039280080E0FB685B68002B02D0FB8A012B74D116
:10393800FB68DB8F9BB2012B12D9FB689B6B1A8843
:10394800FB681B68DA60FB689B6B9A1CFB689A63D0
:10395800FB68DB8F9BB2023B9AB2FB68DA875CE0BC
:10396800FB689A6BFB681B680C3312781A70FB684B
:103978009B6B5A1CFB689A63FB68DB8F9BB2013B0D
:103988009AB2FB68DA8748E0FB681B689B6803F01B
:103998000203022B2BD1FB68DB8F9BB2012B12D9C0
:1039A800FB689B6B1A88FB681B68DA60FB689B6B7B
:1039B8009A1CFB689A63FB68DB8F9BB2023B9AB246
:1039C800FB68DA8729E0FB689A6BFB681B680C3395
:1039D80012781A70FB689B6B5A1CFB689A63FB6829
:1039E800DB8F9BB2013B9AB2FB68DA8715E0FDF7E3
:1039F800F1FF0246BB69D31A3A689A4203D83B687A
:103A0800B3F1FF3F02D13B68002B06D10323FB77BC
:103A1800FB68012283F85D2036E0FB68DB8F9BB2F0
:103A2800002BB1D1FB689B6AB3F5005F07D1FB6837
:103A38001B681A68FB681B6842F480521A60BA69EE
:103A48003968F86800F0DAFE0346002B02D0FB68FC
:103A580020221A66FB689B68002B0AD100233B6171
:103A6800FB681B68DB683B61FB681B689B683B6104
:103A78003B69FB681B6E002B02D00123FB7703E038
:103A8800FB68012283F85D20FB68002283F85C2034
:103A9800FB7F18462037BD4680BD80B58CB002AF8D
:103AA800F860B9603B601346FB800023BB610023CC
:103AB800FB75002387F82730FB6893F85D30DBB28D
:103AC800012B03D0022387F82730CCE1FB685B6821
:103AD800B3F5827F12D1FB689B68002B0ED1FB687F
:103AE800042283F85D20FA883B6800931346BA687D
:103AF800B968F86800F0C1F90346BAE1FB6893F8C1
:103B08005C30012B01D10223B3E1FB68012283F869
:103B18005C20FDF75FFF3862BB68002B02D0FB8892
:103B2800002B03D1012387F827309CE1FB6804228E
:103B380083F85D20FB6800221A66FB68BA681A647D
:103B4800FB68FA88A3F84420FB68FA88A3F84620A3
:103B5800FB6800229A63FB6800229A87FB680022B0
:103B6800DA87FB680022DA64FB6800221A65FB68C2
:103B78009B6AB3F5005F18D1FB681B681A68FB687D
:103B88001B6822F400521A60FB681B681A68FB68FD
:103B98001B6842F400521A60FB68B3F846309BB2C7
:103BA800013B9AB2FB68A3F84620FB68DB68B3F5D3
:103BB800E06F08D9FB681B685A68FB681B6822F429
:103BC80080525A6007E0FB681B685A68FB681B68EC
:103BD80042F480525A60FB689B68B3F5004F0FD1DE
:103BE800FB681B681A68FB681B6822F040021A60B1
:103BF800FB681B681A68FB681B6822F480421A601D
:103C0800FB681B681B6803F04003402B07D0FB6868
:103C18001B681A68FB681B6842F040021A60FB6860
:103C2800DB68B3F5E06F71D835E0FB681B689B680B
:103C380003F00103012B17D1FB681B6803F10C0289
:103C4800FB681B6C1278D2B21A70FB681B6C5A1C8A
:103C5800FB681A64FB68B3F846309BB2013B9AB222
:103C6800FB68A3F8462016E0FDF7B4FE02463B6A5F
:103C7800D31A3A689A4203D83B68B3F1FF3F02D19E
:103C88003B68002B07D1032387F82730FB68012204
:103C980083F85D20E7E0FB68B3F846309BB2002B61
:103CA800C3D139E0FB681B689B6803F00103012B53
:103CB80015D1FB681B68DA68FB681B6C92B21A8026
:103CC800FB681B6C9A1CFB681A64FB68B3F84630E7
:103CD8009BB2013B9AB2FB68A3F8462016E0FDF7B9
:103CE80079FE02463B6AD31A3A689A4203D83B687F
:103CF800B3F1FF3F02D13B68002B07D1032387F8BC
:103D08002730FB68012283F85D20ACE0FB68B3F83C
:103D180046309BB2002BC5D1FB689B6AB3F5005FA8
:103D280078D1FB681B681A68FB681B6842F48052EC
:103D38001A603B6A00933B6801220121F86800F091
:103D4800E7FB0346002B03D0032387F827308AE0DC
:103D5800FB68DB68B3F5E06F07D9FB681B68DA68B6
:103D6800FB681B6C92B21A8008E0FB681B6803F1C1
:103D78000C02FB681B6C1278D2B21A703B6A009373
:103D88003B6801220121F86800F0C2FB0346002BC2
:103D980009D0FB681B6E43F00202FB681A66032316
:103DA80087F827305FE0FB68DB68B3F5706F05D1F3
:103DB800FB681B68DB68BB61BB692BE0FB681B68A1
:103DC8000C33FB61FB691B78DBB2FB75FB7DFB6881
:103DD800DB68B3F5E06F1DD1FB681B6B022B19D1B3
:103DE8003B6A00933B6801220121F86800F090FBD0
:103DF8000346002B09D0FB681B6E43F00202FB68E8
:103E08001A66032387F827302DE0FB691B78DBB29D
:103E1800FB75FB7D3A6A3968F86800F097FC034641
:103E2800002B02D0FB6820221A66FB681B689B687F
:103E380003F01003102B0AD1FB681B6E43F002023B
:103E4800FB681A66FB681B684FF6EF729A60FB689E
:103E58001B6E002B03D0012387F8273003E0FB6893
:103E6800012283F85D20FB68002283F85C2097F824
:103E7800273018462837BD4680BD80B592B002AFBE
:103E8800F860B9607A607B800023BB610023FB7512
:103E98000123FB63002387F83B30FB6893F85C3011
:103EA800012B01D1022322E3FB68012283F85C2065
:103EB800FDF790FD7863FB6893F85D3087F8333041
:103EC800FB685B68FB627B887B857B883B85FB683E
:103ED8001B681B687B62FB681B685B683B6297F822
:103EE8003330012B0FD0FB6AB3F5827F07D1FB6813
:103EF8009B68002B03D197F83330042B03D002239F
:103F080087F83B30EDE2BB68002B05D07B68002BBF
:103F180002D07B88002B03D1012387F83B30E0E2F5
:103F2800FB6893F85D30DBB2042B03D0FB680522F5
:103F380083F85D20FB6800221A66FB687A681A64B9
:103F4800FB687A88A3F84620FB687A88A3F844209F
:103F5800FB68BA689A63FB687A88DA87FB687A88AC
:103F68009A87FB680022DA64FB6800221A65FB68FE
:103F78009B6AB3F5005F0FD1FB681B681A68FB6882
:103F88001B6822F400521A60FB681B681A68FB68F9
:103F98001B6842F400521A60FB68DB68B3F5E06FF7
:103FA80002D83B8D012B08D9FB681B685A68FB684F
:103FB8001B6822F480525A6007E0FB681B685A6845
:103FC800FB681B6842F480525A60FB681B681B68D8
:103FD80003F04003402B07D0FB681B681A68FB6896
:103FE8001B6842F040021A60FB68DB68B3F5E06FBB
:103FF80040F2CE80FB685B68002B03D07B8D012BE1
:1040080040F0B880FB689B6B1A88FB681B68DA6015
:10401800FB689B6B9A1CFB689A63FB68DB8F9BB2FF
:10402800013B9AB2FB68DA87FB68DB8F9BB2002BF7
:1040380040F0A080FB689B6AB3F5005F40F09A806F
:104048007B6A03F00403002B0CD13B6A03F00803DE
:10405800002B07D0FB681B681A68FB681B6842F4D2
:1040680000721A60FB681B681A68FB681B6842F4D8
:1040780080521A607EE0FB681B689B6803F00203AD
:10408800022B3FD1FB68DB8F9BB2002B3AD0FB6B36
:10409800012B37D1FB689B6B1A88FB681B68DA60B9
:1040A800FB689B6B9A1CFB689A63FB68DB8F9BB26F
:1040B800013B9AB2FB68DA870023FB63FB68DB8F5E
:1040C8009BB2002B1ED1FB689B6AB3F5005F19D128
:1040D8007B6A03F00403002B0CD13B6A03F008034E
:1040E800002B07D0FB681B681A68FB681B6842F442
:1040F80000721A60FB681B681A68FB681B6842F448
:1041080080521A60FB681B689B6803F00103012B4F
:104118001CD1FB68B3F846309BB2002B16D0FB6865
:104128001B68DA68FB681B6C92B21A80FB681B6C10
:104138009A1CFB681A64FB68B3F846309BB2013BD3
:104148009AB2FB68A3F846200123FB63FDF742FC03
:1041580002467B6BD31ABA6C9A420BD8BB6CB3F18C
:10416800FF3F07D0032387F83B30FB68012283F821
:104178005D20B6E1FB68DB8F9BB2002B7FF47BAF41
:10418800FB68B3F846309BB2002B7FF474AF2DE187
:10419800FB685B68002B03D07B8D012B40F01981F5
:1041A800FB68DB8F9BB2012B12D9FB689B6B1A88CB
:1041B800FB681B68DA60FB689B6B9A1CFB689A6358
:1041C800FB68DB8F9BB2023B9AB2FB68DA8700E19F
:1041D800FB689A6BFB681B680C3312781A70FB68D3
:1041E8009B6B5A1CFB689A63FB68DB8F9BB2013B95
:1041F8009AB2FB68DA87FB68DB8F9BB2002B40F032
:10420800E880FB689B6AB3F5005F40F0E2807B6A58
:1042180003F00403002B0CD13B6A03F00803002BC6
:1042280007D0FB681B681A68FB681B6842F40072B9
:104238001A60FB681B681A68FB681B6842F48052A6
:104248001A60C6E0FB681B689B6803F00203022B38
:1042580058D1FB68DB8F9BB2002B53D0FB6B012B33
:1042680050D1FB68DB8F9BB2012B12D9FB689B6B8B
:104278001A88FB681B68DA60FB689B6B9A1CFB68F2
:104288009A63FB68DB8F9BB2023B9AB2FB68DA87C2
:1042980012E0FB689A6BFB681B680C3312781A7083
:1042A800FB689B6B5A1CFB689A63FB68DB8F9BB2AD
:1042B800013B9AB2FB68DA870023FB63FB68DB8F5C
:1042C8009BB2002B1ED1FB689B6AB3F5005F19D126
:1042D8007B6A03F00403002B0CD13B6A03F008034C
:1042E800002B07D0FB681B681A68FB681B6842F440
:1042F80000721A60FB681B681A68FB681B6842F446
:1043080080521A60FB681B689B6803F00103012B4D
:1043180048D1FB68B3F846309BB2002B42D0FB680B
:10432800B3F846309BB2012B23D9FB681B68DA68C7
:10433800FB681B6C92B21A80FB681B6C9A1CFB68AA
:104348001A64FB68B3F846309BB2023B9AB2FB682A
:10435800A3F84620FB68B3F846309BB2012B1FD860
:10436800FB681B685A68FB681B6842F480525A60F5
:1043780016E0FB681B6803F10C02FB681B6C1278E3
:10438800D2B21A70FB681B6C5A1CFB681A64FB6873
:10439800B3F846309BB2013B9AB2FB68A3F84620BB
:1043A8000123FB63FDF716FB02467B6BD31ABA6C3D
:1043B8009A4203D8BB6CB3F1FF3F02D1BB6C002B10
:1043C80007D1032387F83B30FB68012283F85D207F
:1043D80087E0FB68DB8F9BB2002B7FF433AFFB6871
:1043E800B3F846309BB2002B7FF42CAFFB689B6A76
:1043F800B3F5005F46D17B6B0093BB6C01220121B2
:10440800F86800F085F80346002B09D0FB681B6E9E
:1044180043F00202FB681A66032387F83B3060E02A
:10442800FB68DB68B3F5706F05D1FB681B68DB6858
:10443800BB61BB6926E0FB681B680C33FB61FB6949
:104448001B78DBB2FB75FB7DFB681B6B022B19D15C
:104458007B6B0093BB6C01220121F86800F058F8CF
:104468000346002B09D0FB681B6E43F00202FB6871
:104478001A66032387F83B3033E0FB691B78DBB20D
:10448800FB75FB7DFB681B689B6803F01003102B12
:104498000DD1FB681B6E43F00202FB681A66FB68CD
:1044A8001B684FF6EF729A60012387F83B307A6BEE
:1044B800B96CF86800F0A2F90346002B05D0012377
:1044C80087F83B30FB6820221A66FB681B6E002BBE
:1044D80003D0012387F83B3003E0FB68012283F80F
:1044E8005D20FB68002283F85C2097F83B30184673
:1044F8004037BD4680BD80B483B000AF78607B682C
:1045080093F85D30DBB218460C37BD4680BC704767
:1045180080B588B000AFF860B9603B601346FB71A6
:10452800FDF758FA0246BB6A9B1A3A681344FB61C6
:10453800FDF750FAB861394B1B685B011B0DFA692E
:1045480002FB03F37B6154E03B68B3F1FF3F50D0BB
:10455800FDF740FA0246BB69D31AFA699A4202D9B2
:10456800FB69002B3DD1FB681B685A68FB681B6818
:1045780022F0E0025A60FB685B68B3F5827F11D1D4
:10458800FB689B68B3F5004F04D0FB689B68B3F5E4
:10459800806F07D1FB681B681A68FB681B6822F0EC
:1045A80040021A60FB689B6AB3F5005F0FD1FB6895
:1045B8001B681A68FB681B6822F400521A60FB68C3
:1045C8001B681A68FB681B6842F400521A60FB6893
:1045D800012283F85D20FB68002283F85C20032316
:1045E80017E07B69002B01D10023FB617B69013B4C
:1045F8007B61FB681B689A68BB681340BA689A427B
:104608000CBF01230023DBB21A46FB799A429BD1E7
:10461800002318462037BD4680BD00BF000000209B
:1046280080B58AB000AFF860B9607A603B6000235B
:10463800FB75FDF7CFF902463B6B9B1A3A681344AA
:104648007B62FDF7C7F93862FB681B680C33FB61B6
:104658003D4B1A6813469B001344DA00D31A1B0D0E
:104668007A6A02FB03F3BB6160E0BB68B3F5C06F15
:1046780007D17B68002B04D1FB691B78DBB2FB7583
:10468800FB7D3B68B3F1FF3F50D0FDF7A3F902462D
:104698003B6AD31A7A6A9A4202D97B6A002B3DD1C7
:1046A800FB681B685A68FB681B6822F0E0025A60C6
:1046B800FB685B68B3F5827F11D1FB689B68B3F533
:1046C800004F04D0FB689B68B3F5806F07D1FB6887
:1046D8001B681A68FB681B6822F040021A60FB68B6
:1046E8009B6AB3F5005F0FD1FB681B681A68FB680B
:1046F8001B6822F400521A60FB681B681A68FB6882
:104708001B6842F400521A60FB68012283F85D209E
:10471800FB68002283F85C20032310E0BB69002BB0
:1047280001D100237B62BB69013BBB61FB681B684D
:104738009A68BB6813407A689A4296D10023184653
:104748002837BD4680BD00BF0000002080B586B078
:1047580002AFF860B9607A60FB685B68B3F5827F86
:1047680011D1FB689B68B3F5004F04D0FB689B68C8
:10477800B3F5806F07D1FB681B681A68FB681B6874
:1047880022F040021A607B680093BB6800228021F7
:10479800F868FFF7BDFE0346002B07D0FB681B6EC9
:1047A80043F02002FB681A66032323E0FB685B687A
:1047B800B3F5827F1DD1FB689B68B3F5004F04D029
:1047C800FB689B68B3F5806F13D17B680093BB6867
:1047D80000224FF4C061F868FFF722FF0346002B60
:1047E80007D0FB681B6E43F02002FB681A660323A0
:1047F80000E0002318461037BD4680BD80B586B05E
:1048080002AFF860B9607A607B680093BB680022E9
:104818004FF4C051F868FFF703FF0346002B07D099
:10482800FB681B6E43F02002FB681A66032327E02F
:104838007B680093BB6800228021F868FFF768FE58
:104848000346002B07D0FB681B6E43F02002FB6871
:104858001A66032314E07B680093BB6800224FF4B8
:10486800C061F868FFF7DCFE0346002B07D0FB6841
:104878001B6E43F02002FB681A66032300E0002346
:1048880018461037BD4680BD80B483B000AF78604D
:10489800064B9B6823F4006204497B6813438B60D2
:1048A80000BF0C37BD4680BC704700BF00040058ED
:1048B80080B400AF054BD3F89030044A43F400436A
:1048C800C2F8903000BFBD4680BC70470004005855
:1048D80080B400AF054BD3F89030044A23F400436A
:1048E800C2F8903000BFBD4680BC70470004005835
:1048F80080B400AF034B4FF400629A6100BFBD461D
:1049080080BC70470004005880B400AF064B5B6958
:1049180003F00203022B01D1012300E00023184613
:10492800BD4680BC704700BF0004005880B400AF8B
:10493800064B5B6903F00403042B01D1012300E05B
:1049480000231846BD4680BC704700BF00040058CD
:1049580080B400AF4FF0B043D3F894304FF0B0427A
:1049680023F40043C2F8943000BFBD4680BC7047B2
:1049780080B400AF4FF0B043D3F8943003F48043D1
:10498800B3F5804F01D1012300E000231846BD464E
:1049980080BC704780B483B000AF7860064BD3F812
:1049A800902005497B681343C1F8903000BF0C374D
:1049B800BD4680BC704700BF0008005880B584B071
:1049C80000AF78607B68002B03D10123FB73FB7B6E
:1049D80052E00023FB737B689B79BB73BB7B002B86
:1049E80002D0BB7B032B09D17B6800225A717868FF
:1049F800FCF790FA4FF48050FFF7CCFFBB7B002BFD
:104A080026D17B6802229A71FFF7A2FF1C4B1A6815
:104A18001346DB009B1A9B00DB0C642202FB03F3AA
:104A2800BB60BB68002B05D10123FB737B680122A7
:104A38009A6007E0BB68013BBB60FFF799FF03463C
:104A4800002BEED1FFF734FF4FF40060FFF71CFF97
:104A5800FFF74EFFFB7B002B0AD17B681B681846CB
:104A680000F064FA7B6801221A717B6800229A6060
:104A78007B6801229A71FB7B18461037BD4680BDC2
:104A88000000002080B586B000AFF8607A601A4652
:104A98000B467B8113463B81FB689B79DBB2012B7C
:104AA8004AD1FB685B79012B01D1022345E0FB6801
:104AB80001225A71FB6802229A71F86800F004FB1F
:104AC800FFF706FF0D21F86800F050FA7B891B0AF2
:104AD8009BB2DBB21946F86800F048FA7B89DBB272
:104AE8001946F86800F042FA0023BB820AE0BB8A44
:104AF8007A6813441B781946F86800F037FABB8ABD
:104B08000133BB82BA8A3B899A42F0D3FFF7D0FEC1
:104B1800F86800F0FDFAFB689B68002B02D00123BF
:104B2800FB7501E00023FB75FB6801229A71FB68A5
:104B380000225A71FB7D00E0022318461837BD4653
:104B480080BD80B588B000AFF8607A601A460B4621
:104B58007B8113463B817B68BB61FB689B79DBB239
:104B6800012B4AD1FB685B79012B01D1022345E077
:104B7800FB6801225A71F86800F0A6FAFFF7A8FE50
:104B88001D21F86800F0F2F97B891B0A9BB2DBB2A1
:104B98001946F86800F0EAF97B89DBB21946F8682B
:104BA80000F0E4F90021F86800F0E0F90023FB8246
:104BB80009E0B969F86800F02FFABB690133BB61F5
:104BC800FB8A0133FB82FA8A3B899A42F1D3FFF7C9
:104BD8006FFEF86800F09CFAFB689B68002B02D017
:104BE8000123FB7701E00023FB77FB6801229A7120
:104BF800FB6800225A71FB7F00E002231846203729
:104C0800BD4680BD80B586B000AFF8607A601A46B0
:104C18000B46FB7213463B81FB689B79DBB2012B89
:104C28004AD1FB685B79012B01D1022345E0FB687F
:104C380001225A71F86800F047FAFB7A842B02D0F7
:104C4800FB7A942B03D1FB6801221A7102E0FB68FE
:104C580000221A71FFF73CFEFB7A1946F86800F04B
:104C680085F90023BB820AE0BB8A7A6813441B7863
:104C78001946F86800F07AF9BB8A0133BB82BA8A10
:104C88003B899A42F0D3FFF713FEFB7A842B02D0BC
:104C9800F86800F03DFAFB689B68002B02D00123FE
:104CA800FB7501E00023FB75FB6801229A71FB6824
:104CB80000225A71FB7D00E0022318461837BD46D2
:104CC80080BD80B588B000AFF8607A601A460B46A0
:104CD800FB7213463B817B68BB61FB689B79DBB247
:104CE800012B3DD1FB685B79012B01D1022338E010
:104CF800FB6801225A71F86800F0E6F9FFF7E8FD51
:104D0800FB7A1946F86800F031F90021F86800F0DC
:104D18002DF90023FB8209E0B969F86800F07CF9F5
:104D2800BB690133BB61FB8A0133FB82FA8A3B8989
:104D38009A42F1D3FFF7BCFDF86800F0E9F9FB6887
:104D48009B68002B02D00123FB7701E00023FB774F
:104D5800FB6801229A71FB6800225A71FB7F00E010
:104D6800022318462037BD4680BD80B586B000AF07
:104D7800F8607A601A460B46FB7213463B81FB6863
:104D88009B79DBB2012B3ED1FB685B79012B01D10A
:104D9800022339E0FB6801225A71F86800F094F99F
:104DA800FFF796FD0E21F86800F0E0F8FB7A194647
:104DB800F86800F0DBF80023BB820AE0BB8A7A6857
:104DC80013441B781946F86800F0D0F8BB8A013301
:104DD800BB82BA8A3B899A42F0D3FFF769FDF8682B
:104DE80000F096F9FB689B68002B02D00123FB7545
:104DF80001E00023FB75FB6801229A71FB68002221
:104E08005A71FB7D00E0022318461837BD4680BD65
:104E180080B584B000AF78600023BB8107F10C0235
:104E2800022312217868FFF74CFF3B7BFB81B7F91F
:104E38000E301B021AB27B7B1BB213431BB2FB81E1
:104E480007F10C02022302217868FFF7DBFEFB89D9
:104E580003F00103002B02D07868FCF78DFCFB8976
:104E68005B0803F00103002B08D0FB899B0903F0C2
:104E78000103002B02D17868FCF78CFCFB899B08A6
:104E880003F00103002B02D07868FCF7DBFCFB89F8
:104E9800DB0803F00103002B02D07868FCF7E0FC84
:104EA800FB891B0903F00103002B02D07868FCF78B
:104EB800E5FCFB895B0903F00103002B02D078684D
:104EC800FCF7B2FCFB899B0903F00103002B02D01D
:104ED8007868FCF76DFCFB89DB0903F00103002B04
:104EE8000ED0FB891B0A03F00103002B04D001211B
:104EF8007868FCF76BFC03E000217868FCF766FC37
:104F0800FB895B0A03F00103002B02D07868FCF7E9
:104F18007BFCFB899B0B03F00103002B02D0786814
:104F2800FCF7BAFC00BF1037BD4680BD80B483B023
:104F380000AF78600C4B1B680B4A23F040031360EA
:104F4800094A7B6843F441731360074B4FF4B85226
:104F58005A60054B1B68044A43F04003136000BFC6
:104F68000C37BD4680BC70470000015880B487B03C
:104F780000AF78600B46FB700023FB75234B1A6863
:104F88001346DB009B1A9B00DB0C642202FB03F335
:104F9800FB60FB68002B05D10123FB757B680122B0
:104FA8009A6008E0FB68013BFB60194B9B6803F0C3
:104FB8000203022BEDD1174B3B613B69FA781A705B
:104FC800124B1A681346DB009B1A9B00DB0C642209
:104FD80002FB03F3FB60FB68002B05D10123FB7583
:104FE8007B6801229A6008E0FB68013BFB60084B84
:104FF8009B6803F00103012BEDD1054BDB68FB7DBA
:1050080018461C37BD4680BC704700BF0000002012
:10501800000001580C00015880B487B000AF7860D8
:1050280039600023FB75254B1A681346DB009B1A71
:105038009B00DB0C642202FB03F3FB60FB68002B84
:1050480005D10123FB757B6801229A6008E0FB68A3
:10505800013BFB601A4B9B6803F00203022BEDD166
:10506800184B3B613B69FF221A70144B1A681346B0
:10507800DB009B1A9B00DB0C642202FB03F3FB6042
:10508800FB68002B05D10123FB757B6801229A6020
:1050980008E0FB68013BFB60094B9B6803F00103D8
:1050A800012BEDD1064BDB68DAB23B681A70FB7D49
:1050B80018461C37BD4680BC704700BF0000002062
:1050C800000001580C00015880B584B000AF78602A
:1050D8007B681B79012B11D10C4B1A6813465B00B6
:1050E8001344DB001B0CFB60FFF7F2FBFB68013B82
:1050F800FB60FB68002BF9D1FFF7DAFB786800F05A
:1051080007F8034618461037BD4680BD000000204A
:1051180080B586B000AF78600023FB75124B1A6823
:1051280013465B001344DB001B0D642202FB03F3F0
:10513800FB60FFF7FBFB3861FB68002B05D10123FF
:10514800FB757B6802229A6009E0FB68013BFB6003
:10515800FFF7DAFB02463B691340012BE9D0FB7DE0
:1051680018461837BD4680BD0000002080B582B0C3
:1051780000AF78607B68002B01D1012349E07B6890
:1051880093F83D30DBB2002B06D17B68002283F810
:105198003C207868FBF73EFF7B68022283F83D20BD
:1051A8007B681A687B6804331946104600F07AFA5F
:1051B8007B68012283F848207B68012283F83E201F
:1051C8007B68012283F83F207B68012283F8402016
:1051D8007B68012283F841207B68012283F8422002
:1051E8007B68012283F843207B68012283F84420EE
:1051F8007B68012283F845207B68012283F84620DA
:105208007B68012283F847207B68012283F83D20D0
:10521800002318460837BD4680BD000080B485B01D
:1052280000AF78607B6893F83D30DBB2012B01D08A
:10523800012336E07B68022283F83D207B681B68E7
:10524800DA687B681B6842F00102DA607B681B68D9
:10525800164A934204D07B681B68B3F1804F15D17E
:105268007B681B689A68124B1340FB60FB68062B2F
:1052780015D0FB68B3F5803F11D07B681B681A68AE
:105288007B681B6842F001021A6008E07B681B68B3
:105298001A687B681B6842F001021A6000E000BFD0
:1052A800002318461437BD4680BC7047002C0140C7
:1052B8000700010080B584B000AF78607B681B6888
:1052C800DB68FB607B681B681B69BB60BB6803F01D
:1052D8000203002B20D0FB6803F00203002B1BD035
:1052E8007B681B686FF002021A617B6801221A77DB
:1052F8007B681B689B6903F00303002B03D0786865
:1053080000F0B5F905E0786800F0A8F9786800F0D1
:10531800B7F97B6800221A77BB6803F00403002BF7
:1053280020D0FB6803F00403002B1BD07B681B68AC
:105338006FF004021A617B6802221A777B681B6887
:105348009B6903F44073002B03D0786800F08FF951
:1053580005E0786800F082F9786800F091F97B68D8
:1053680000221A77BB6803F00803002B20D0FB68E3
:1053780003F00803002B1BD07B681B686FF0080242
:105388001A617B6804221A777B681B68DB6903F063
:105398000303002B03D0786800F069F905E078680A
:1053A80000F05CF9786800F06BF97B6800221A77E6
:1053B800BB6803F01003002B20D0FB6803F0100338
:1053C800002B1BD07B681B686FF010021A617B688A
:1053D80008221A777B681B68DB6903F44073002B8B
:1053E80003D0786800F043F905E0786800F036F9F2
:1053F800786800F045F97B6800221A77BB6803F0EB
:105408000103002B0CD0FB6803F00103002B07D02D
:105418007B681B686FF001021A61786800F015F963
:10542800BB6803F08003002B0CD0FB6803F08003FB
:10543800002B07D07B681B686FF080021A617868C0
:1054480000F09DFABB6803F48073002B0CD0FB6856
:1054580003F08003002B07D07B681B686FF4807211
:105468001A61786800F094FABB6803F04003002BD7
:105478000CD0FB6803F04003002B07D07B681B6847
:105488006FF040021A61786800F003F9BB6803F016
:105498002003002B0CD0FB6803F02003002B07D05F
:1054A8007B681B686FF020021A61786800F05EFA6A
:1054B80000BF1037BD4680BD80B584B000AF7860AE
:1054C80039600023FB737B6893F83C30012B01D1D2
:1054D8000223B6E07B68012283F83C207B68022225
:1054E80083F83D207B681B689B68BB60BB6823F41E
:1054F800441323F07703BB60BB6823F47F43BB608E
:105508007B681B68BA689A603B681B68B3F5005FE4
:105518003ED0B3F5005F00F28780B3F5805F00F0FE
:105528008680B3F5805F7FD8702B1AD0702B7BD81C
:10553800602B50D0602B77D8502B3CD0502B73D891
:10554800402B58D0402B6FD8302B64D0302B6BD8E1
:10555800202B60D0202B67D8002B5CD0102B5AD082
:1055680062E07B6818683B6899683B685A683B68E2
:10557800DB6800F07EF97B681B689B68BB60BB68D2
:1055880043F07703BB607B681B68BA689A604FE09A
:105598007B6818683B6899683B685A683B68DB68B1
:1055A80000F067F97B681B689A687B681B6842F49F
:1055B80080429A603CE07B6818683B6859683B68A1
:1055C800DB681A4600F0DCF87B681B685021184637
:1055D80000F033F92CE07B6818683B6859683B6831
:1055E800DB681A4600F0FAF87B681B6860211846E9
:1055F80000F023F91CE07B6818683B6859683B6831
:10560800DB681A4600F0BCF87B681B684021184626
:1056180000F013F90CE07B681A683B681B681946B0
:10562800104600F00AF903E00123FB7300E000BF15
:105638007B68012283F83D207B68002283F83C20A8
:10564800FB7B18461037BD4680BD80B483B000AFE1
:10565800786000BF0C37BD4680BC704780B483B00B
:1056680000AF786000BF0C37BD4680BC704780B47F
:1056780083B000AF786000BF0C37BD4680BC704770
:1056880080B483B000AF786000BF0C37BD4680BCE3
:10569800704780B483B000AF786000BF0C37BD4658
:1056A80080BC704780B485B000AF786039607B6893
:1056B8001B68FB607B682F4A934203D07B68B3F179
:1056C800804F08D1FB6823F07003FB603B685B6880
:1056D800FA681343FB607B68264A93420BD07B68C9
:1056E800B3F1804F07D07B68234A934203D07B688D
:1056F800224A934208D1FB6823F44073FB603B685D
:10570800DB68FA681343FB60FB6823F080023B68A0
:105718005B691343FB607B68FA681A603B689A68A8
:105728007B68DA623B681A687B689A627B68114A10
:10573800934207D07B68104A934203D07B680F4A94
:10574800934203D13B681A697B681A637B6801221C
:105758005A617B681B6903F00103012B05D17B6843
:105768001B6923F001027B681A6100BF1437BD462C
:1057780080BC7047002C01400044014000480140B3
:1057880080B487B000AFF860B9607A60FB681B6AC4
:105798007B61FB681B6A23F00102FB681A62FB68E5
:1057A8009B693B613B6923F0F0033B617B681B010C
:1057B8003A6913433B617B6923F00A037B617A6989
:1057C800BB6813437B61FB683A699A61FB687A6935
:1057D8001A6200BF1C37BD4680BC704780B487B0D2
:1057E80000AFF860B9607A60FB681B6A7B61FB6890
:1057F8001B6A23F01002FB681A62FB689B693B6115
:105808003B6923F470433B617B681B033A6913438C
:105818003B617B6923F0A0037B61BB681B017A694C
:1058280013437B61FB683A699A61FB687A691A627B
:1058380000BF1C37BD4680BC704780B485B000AF40
:10584800786039607B689B68FB60FB6823F44013D1
:1058580023F07003FB603A68FB68134343F00703C7
:10586800FB607B68FA689A6000BF1437BD4680BC4D
:10587800704780B487B000AFF860B9607A603B6069
:10588800FB689B687B617B6923F47F437B613B6892
:105898001A027B681A43BB6813437A6913437B6116
:1058A800FB687A699A6000BF1C37BD4680BC7047A8
:1058B80080B485B000AF786039607B6893F83C307D
:1058C800012B01D102234AE07B68012283F83C20A6
:1058D8007B68022283F83D207B681B685B68FB605D
:1058E8007B681B689B68BB607B681B681E4A934289
:1058F80008D1FB6823F47003FB603B685B68FA68B7
:105908001343FB60FB6823F07003FB603B681B6874
:10591800FA681343FB607B681B68FA685A607B6807
:105928001B68114A934204D07B681B68B3F1804F0F
:105938000CD1BB6823F08003BB603B689B68BA68E6
:105948001343BB607B681B68BA689A607B68012256
:1059580083F83D207B68002283F83C20002318460A
:105968001437BD4680BC7047002C014080B483B01A
:1059780000AF786000BF0C37BD4680BC704780B46C
:1059880083B000AF786000BF0C37BD4680BC70475D
:1059980080B483B000AF786000BF0C37BD4680BCD0
:1059A800704780B483B000AF78604FF0B043D3F84D
:1059B80088207B681A407B681B04134318460C3701
:1059C800BD4680BC704780B483B000AF78604FF0AC
:1059D800B043D3F888207B68134018460C37BD467F
:1059E80080BC704780B582B000AF78607B68002BC0
:1059F80001D1012342E07B68D3F88830002B06D11F
:105A08007B68002283F884207868FBF797FB7B6823
:105A18002422C3F888207B681B681A687B681B6887
:105A280022F001021A607B689B6A002B02D078681A
:105A380000F09CFA786800F025F80346012B01D1A4
:105A480001231BE07B681B685A687B681B6822F48B
:105A580090425A607B681B689A687B681B6822F0D2
:105A68002A029A607B681B681A687B681B6842F088
:105A780001021A60786800F01AFB034618460837D6
:105A8800BD4680BD2DE9B04F8CB000AF78610023D2
:105A980087F82A307B699A687B691B691A437B6996
:105AA8005B691A437B69DB691343FB627B691B688B
:105AB8001A68944B13407A691268F96A0B431360A9
:105AC8007B691B685B6823F440517B69DA687B69F2
